:020000040800F2
:10000000B0080020010100080B140008E3100008EC
:10001000091400086D010008B11700080000000075
:10002000000000000000000000000000691500084A
:100030006F01000800000000151500086B1500088E
:100040001B0100081B0100081B0100081B01000820
:100050001B0100081B0100081B0100081B01000810
:100060001B0100081B0100081B0100081B01000800
:100070001B0100081B0100081B0100081B010008F0
:100080001B0100081B0100081B0100081B010008E0
:100090001B0100081B0100081B0100081B010008D0
:1000A0001B0100081B0100081B0100081B010008C0
:1000B0001B0100081B0100081B0100081B010008B0
:1000C0001B0100081B0100081B0100081B010008A0
:1000D0001B010008A51700081B0100081B010008F0
:1000E0001B0100081B0100081B010008DFF80CD0F1
:1000F00000F02AF800480047F1170008B008002077
:100100000648804706480047FEE7FEE7FEE7FEE7B1
:10011000FEE7FEE7FEE7FEE7FEE7FEE7BD150008A7
:10012000ED000008D2B201E000F8012B491EFBD21D
:1001300070470022F6E710B513460A4604461946F2
:10014000FFF7F0FF204610BD064C074D06E0E068C3
:1001500040F0010394E8070098471034AC42F6D30E
:10016000FFF7C8FF3818000858180008FEE7704766
:10017000704710B590F821100022022905D0042103
:10018000816380F82020012010BD01680B6823F0F6
:100190000E030B6001680B6823F001030B6090F8FD
:1001A0004030C46B012101FA03F3636080F8211031
:1001B00080F82020104610BD10B590F821100024C2
:1001C000022903D00421816301243DE001680A680B
:1001D00022F00E020A6001680A6822F001020A6039
:1001E0001A4A0168914201D1012121E0174A1432D3
:1001F000914201D110211BE0144A2832914201D1D1
:10020000891515E0114A3C32914201D189140FE061
:100210000E4A5032914202D14FF4803108E00B4A2D
:100220006432914202D14FF4801101E04FF08071AD
:10023000064A083A5160012180F82110002180F817
:100240002010416B01B18847204610BD08000240D4
:100250002DE9F84FDFF8B891002409F1040A0AF1FA
:10026000040B23460F270BF1040EC9E00125A5401E
:100270002A40AA427DD1674ED1F804C0ACEB0608F3
:10028000B44532D014DCBCF1030F3AD009DCBCF128
:10029000000F2AD0BCF1010F1CD0BCF1020F31D1EC
:1002A0001DE0BCF1110F17D0BCF1120F2AD119E0DB
:1002B000B8F5881F19D006DCB8F5803F15D0B8F521
:1002C000801F1FD111E0B8F5001F0ED0B8F5041F34
:1002D00018D10AE0CB6815E0CB681B1D12E0CB6893
:1002E00008330FE0CB680C330CE08B682BB1012B8B
:1002F0004FF0080303D0456104E0042302E00561E8
:1003000000E00023FF2A01D8064601E000F10406C0
:100310004FEA840501D9A5F12005D6F8008007FA37
:1003200005FC28EA0C0803FA05F548EA0508C6F8B2
:1003300000804D68ED0062D5374DAE6946F001068C
:10034000AE61AD6924F0030605F001050095334D5B
:1003500006EB050CDCF80850A607360F07FA06F87E
:1003600025EA0805DFF8B880404503D14FF00008C2
:1003700017E044E0DFF8AC80404502D14FF00108BF
:100380000FE0DFF8A480404502D14FF0020808E0FA
:10039000DFF89880404502D14FF0030801E04FF0AC
:1003A000040808FA06F848EA0508CCF808804D6801
:1003B000D9F80060ED034D4601D5164300E09643A1
:1003C0002E604D68DAF80060AD03554601D516433E
:1003D00000E096432E604D68DBF80060ED025D465C
:1003E00001D5164300E096432E604D68DEF80060AC
:1003F000AD02754601D5164300E096432E60641C9D
:100400000D682A46E5407FF431AFBDE8F88F000063
:1004100000040140000011100010024000000140E3
:1004200000080140000C0140001001400014014090
:1004300001488068704700000400002070B5040087
:1004400025D094F83D00002520B984F83C50204682
:1004500000F050F9242084F83D002068016821F064
:10046000010101602068016841F4004101602068D9
:10047000016821F40041016000F098FA4D4A61687A
:10048000914201D84C4900E04C49884201D20120F8
:1004900070BD4B492368B0FBF1F15E6826F03F0662
:1004A0000E435E606368934206D94FF496735943D6
:1004B0004FF47A73B1FBF3F12368491C1E6A26F0EE
:1004C0003F06314319626168914210D84900401ECD
:1004D000B0FBF1F2521CC2F30B02042A01D2042039
:1004E00022E0B0FBF1F0401CC0F30B001CE0A2685E
:1004F000F2B301EBC10303EB0116431EB3FBF6F3AA
:100500005B1C43F480431B0549D092B301EBC1024D
:1005100002EB0111401EB0FBF1F0401CC0F30B00D8
:1005200040F4804040F400402168CA694CF6FF73F3
:100530009A431043C861D4E9071001432068026858
:1005400022F0C00211430160D4E903010143206895
:10055000826848F2FF339A4311438160D4E9050170
:1005600008432168CA6822F0FF021043C86001E016
:100570000EE016E02068016841F001010160256489
:10058000202084F83D00256384F83E50002070BD93
:1005900001EB4106431EB3FBF6F35B1CB3E70120FE
:1005A000C2E701EB4101401EB0FBF1F0401CC0F37B
:1005B0000B00B7E7A086010080841E0000093D0003
:1005C00040420F002DE9FF4F83B09A46DDE91197B5
:1005D00093460446DDF84080FFF72AFF054694F86D
:1005E0003D0020287FD11923012240492046009553
:1005F00000F00AFE002876D194F83C00012872D061
:10060000012084F83C0020680168C90703D1016813
:1006100041F0010101602068016821F4006101607E
:10062000212084F83D00402084F83E000026266406
:10063000C4F82480A4F82A90608D20852C48E062BC
:10064000CDE9007553465A462046049900F062FDF4
:1006500070B930E02A463946204600F054FE58B1C1
:10066000206C042804D12068016841F40071016005
:10067000012007B0BDE8F08F606A2168007808614A
:10068000606A401C6062218D491E89B22185628D9D
:10069000521E628522685369DB435B070BD469B144
:1006A00000781061606A401C6062208D401E2085C9
:1006B000608D401E6085208D0028CBD12A463946AA
:1006C000204600F07BFD0028CAD154F83D0B01689C
:1006D00041F400710160202004F81E09E677667776
:1006E0000020C6E7FFE70220C3E700000200100079
:1006F0000000FFFF10B586B000210091019102912A
:10070000039100680F4988421AD10F4CA06940F04C
:100710000800A061A069694600F008000490C020AC
:10072000009012200190032003900848FFF790FDED
:10073000E06940F40010E061E06900F4001004900A
:1007400006B010BD0054004000100240000C0140F3
:1007500002488168027811448160704704000020DB
:10076000074810B5016841F010010160032000F056
:1007700075F8002000F006F800F024F8002010BD05
:100780000020024070B50D4D04464FF47A71287870
:10079000B1FBF0F00A490968B1FBF0F000F0ECFAA7
:1007A00048B9102C07D200222146501E00F036F81E
:1007B00000206C6070BD012070BD000004000020AE
:1007C000100000200C4808B5816941F001018161E9
:1007D000816901F001010091C16941F08051C1615D
:1007E000C06900F0805000900448416821F0E06149
:1007F00041F08061416008BD0010024000000140EE
:10080000002809DB00F01F0201219140400980000F
:1008100000F1E020C0F8001170470000F0B40E4B6A
:100820001B680C46C3F30223C3F10705042D00D94E
:100830000425191D072901D2002300E0DB1E012633
:1008400006FA05F1491E214099409E40761E164049
:100850003143F0BC00F0ADBF0CED00E0064900F004
:10086000070208684FF6FF03184040EA0220034AD7
:1008700010430860704700000CED00E00000FA052E
:100880002DE9F0470F46050061D0434E306800F077
:100890000700B84209D2306820F0070038433060C2
:1008A000306800F00700B84251D128683B4C8107FE
:1008B00012D5400703D5606840F4E0606060287896
:1008C000000703D5606840F4605060606068A96804
:1008D00020F0F000084360602878C00728D06868DE
:1008E000012810D02168022810D0890700292EDAAB
:1008F000616821F0030101436160FFF799FD8046C3
:1009000041F288390DE021688903EFE78901EDE7BD
:10091000FFF78EFDA0EB0801494502D90320BDE891
:10092000F0876068696800F00C00B0EB810FEFD1D0
:10093000306800F00700B8420BD9306820F007009B
:1009400038433060306800F00700B84201D0012021
:10095000E5E72878400705D56068E96820F4E0609D
:10096000084360602878000706D56068296920F48C
:10097000605040EAC100606000F038F86168084AE1
:10098000C1F30311515CC84006490860064800687D
:10099000FFF7F8FE0020C2E70020024000100240EE
:1009A0002018000810000020080000200448054915
:1009B00000684968044AC1F30221515CC84070478D
:1009C00010000020001002403018000804480549BB
:1009D00000684968044AC1F3C221515CC8407047AD
:1009E00010000020001002403018000812A185B04D
:1009F0000FC98DE80F0014A0144A006804905168D4
:100A0000134801F00C03042B10D0082B0ED1C1F3B6
:100A10008343C9031DF803000AD5516804AAC1F332
:100A20004041515C0A4A5043B0FBF1F005B07047B9
:100A300008494843FAE700000203040506070809CD
:100A40000A0B0C0D0E0F10100102000000100240E6
:100A500000127A0000093D002DE9F84F040070D023
:100A60002078C04DC00749D06868C0F381000128D4
:100A700007D06868C0F38100022809D16868C00304
:100A800006D52868800339D560680028E7D035E0AE
:100A90006068B0F5803F0BD010B1B0F5A02F11D039
:100AA000286820F480302860286820F4802002E044
:100AB000286840F480302860606890B1FFF7B8FC87
:100AC00006460AE0286840F480202860F0E700BF6E
:100AD000FFF7AEFC801B642873D828688003F7D525
:100AE0000CE0FFF7A5FC064605E000BFFFF7A0FC01
:100AF000801B6428F0D828688003F7D420789A4EA9
:100B000080074FF001094FF0000839D5686810F0F0
:100B10000C0F07D06868C0F38100022809D168680B
:100B2000C00306D42868800714D52069012808D19D
:100B300010E02069B0B1C6F80090FFF779FC0746D5
:100B400005E00AE1FFF774FCC01B0228C4D828683E
:100B50008007F7D52868616920F0F80040EAC100F5
:100B600028600DE0C6F80080FFF762FC074604E04D
:100B7000FFF75EFCC01B022823D828688007F7D443
:100B8000207800072CD57948A169D9B1C0F8009028
:100B9000FFF74EFC074604E0FFF74AFCC01B0228A3
:100BA0000FD8686A8007F7D571484FF4FA5100688A
:100BB000B0FBF1F0009000BF0098411E0091FAD206
:100BC0000EE080E0C0F80080FFF732FC074604E04A
:100BD000FFF72EFCC01B022875D8686A8007F7D47F
:100BE0002078400760D5E8690027C00008D4E8698C
:100BF00040F08050E861E869012700F080500090E3
:100C00005C480168C90513D40168834641F48071CA
:100C10000160FFF70DFC824606E000BFFFF708FC0D
:100C2000A0EB0A0064284ED8DBF80000C005F5D51B
:100C3000E06801280AD008B1052813D0286A20F0FE
:100C400001002862286A20F0040002E0286A40F0CF
:100C500001002862E06841F2883B98B1FFF7E8FBA9
:100C600082460BE0286A40F004002862EEE700BFED
:100C7000FFF7DEFBA0EB0A0159455AD8286A800726
:100C8000F6D50CE0FFF7D4FB824605E0FFF7D0FB7A
:100C9000A0EB0A0159454CD8286A8007F6D41FB149
:100CA000E86920F08050E861E06988B36968C1F3C1
:100CB0008101022944D00228C6F8608004D0FFF7E1
:100CC000B7FB044638E034E0FFF7B2FB074604E028
:100CD000FFF7AEFBC01B02282BD828688001F7D491
:100CE000206AB0F5803F05D16868A16820F4003023
:100CF00008436860D4E908010843696821F4741165
:100D000008436860C6F86090FFF792FB044606E06F
:100D100025E000BFFFF78CFB001B022809D82868DC
:100D20008001F7D51BE000BFFFF782FB001B022804
:100D300002D90320BDE8F88F28688001F4D40EE0C2
:100D40000128F7D06868226A00F48031914204D10A
:100D5000616A00F47010884201D00120EAE70020A7
:100D6000E8E70000001002400000424280044242D6
:100D7000100000200070004010B5401EB0F1807FD0
:100D800001D3012010BD4FF0E02460610F216017F6
:100D900000F00FFD0020A06107202061002010BDA1
:100DA00070477047F8B5026804461068D168536907
:100DB00010F00F0F4FF0000553D003F0010601F4BF
:100DC000907737435FD0C20705D0CA0503D5226CA0
:100DD00042F001022264420705D5DA0703D0226CF3
:100DE00042F002022264820705D5DA0703D0226CA2
:100DF00042F004022264020707D501F020023243C8
:100E000003D0226C42F008022264226C002A34D003
:100E1000800604D5880602D5204600F0F0FB206845
:100E20004069216CC0F38010090700D430B320461C
:100E300000F0CDFB2068416949061BD5416921F0CE
:100E400040014161A06BA8B158494163A06BFFF715
:100E5000B3F9002811D0A06B416B01B0BDE8F040A0
:100E6000084783060FD58B060DD52046BDE8F84010
:100E700000F0C5BB2046FFF794FFF8BD2046FFF702
:100E800090FF2564F8BD266B2023012E52D1C606A3
:100E900050D5CE064ED51068506800905069400677
:100EA0002AD5A16B086840680004000CEAD0A68D22
:100EB0008642E7D9E0858869202818D0D06820F4D8
:100EC0008070D0602068416921F001014161206893
:100ED000416921F04001416184F83E30256320687A
:100EE000C16821F01001C160A06BFFF742F9A08D2D
:100EF000E18D401A81B219E0A08DE18D401A81B2D6
:100F0000E08D0028BED00029BCD0D06820F49070BD
:100F1000D0602068426922F00102426184F83E30CC
:100F200025632068C26822F01002C2602046FFF7E5
:100F300037FFF8BD05062BD50D0629D594F83D00E1
:100F40002128F6D1A068B0F5805F01D12069B0B149
:100F5000206A411C2162216800784860E08C401EB4
:100F60000004000CE084E4D12068C16821F0800115
:100F7000C1602068C16841F04001C160F8BD206ACD
:100F80000088C0F308005060206A801C2062E5E7FA
:100F90004006F3D54806F1D5D168204621F040013E
:100FA000D16084F83D3000F09BF8F8BDBF15000813
:100FB00070B5040004D094F83D00002510B106E09F
:100FC000012070BD84F83C50204600F023F8242016
:100FD00084F83D002068C16821F40051C1602046BA
:100FE00000F068FB2068016921F4904101612068EC
:100FF000416921F02A0141612068C16841F4005132
:10100000C1602564202084F83D0084F83E00002063
:1010100070BD000030B585B00024009401940294A6
:1010200003940068184988422CD11848816941F41A
:1010300080418161816901F480410491816941F0BD
:10104000040181618069124D00F0040004904FF4A6
:10105000007000900220019003200390694628460A
:10106000FFF7F6F82815CDE90004694628460294F2
:10107000FFF7EEF8002211462520FFF7CFFB2520D1
:10108000FFF7BEFB05B030BD003801400010024044
:101090000008014090F83E30202B0ED159B152B1DA
:1010A00090F83C30012B08D0012380F83C3000231D
:1010B000036300F05BBB0120704702207047000013
:1010C00010B54FF4806204490448FFF7E3FFBDE820
:1010D000104000F021BA0000140000206804002035
:1010E0007047FEE701684A69D24352050FD46FF496
:1010F00080624A61002140F8301F202242738173D0
:10110000026942F00402026101730120704700206D
:10111000704700002DE9F843044600680D46DDE9FC
:10112000089701689846164641F4807101604B4665
:1011300000224FF001112046009700F065F848B1F9
:1011400020680068C00502D54FF4007020640320B9
:10115000BDE8F883216805F0FE0008613B464A4679
:101160001549204600F084F888B9206841698069F3
:1011700000903A464946204600F0C5F848B1206C38
:10118000042804D12068016841F400710160012045
:10119000DEE7F5B2B8F1010F09D02168300A086125
:1011A0003A464946204600F0AEF80028E7D12068CC
:1011B00005610020CCE700000200010070B5164672
:1011C0000D4604460DE02046FFF78CFF08B10120D4
:1011D00070BD681C05D0FFF72BF9801BA84207D80B
:1011E00035B120684069C0434007ECD4002070BD91
:1011F000002044F8300F20216173A073216941F071
:10120000200121612073E2E72DE9F0471E46904658
:101210000D460446C1F30747DDF8209008E0701C36
:1012200006D0FFF705F9A0EB0900B0420FD876B160
:101230002068012F18D0806925EA00000004000C06
:1012400014D000214145EAD00020BDE8F0870020FD
:1012500044F8300F20216173A073216941F020010F
:10126000216120730120F0E74069E5E70121E9E70A
:101270002DE9F0479A4691460E46044600254FF068
:101280002008C1F3074725E020684069C0434005B6
:1012900014D42068016841F40071016021686FF482
:1012A00080604861256384F83D8084F83E50206C5E
:1012B00040F00400206484F83C501FE0B9F1FF3F87
:1012C00008D0FFF7B5F8A0EB0A0149450CD8B9F1F1
:1012D000000F09D02068012F13D0806926EA000092
:1012E0000004000C0BD0CFE744F8305F84F80D8089
:1012F000A573206940F02000206125730120BDE81E
:10130000F0874069EAE770B516460D4604460DE0E1
:101310002046FFF7E7FE08B1012070BD681C05D02C
:10132000FFF786F8801BA84207D835B120684069CE
:10133000C0430006ECD4002070BD002044F8300FFC
:1013400020216173A073216941F020012161207384
:10135000E2E700000D4808B5816941F02001816194
:10136000816901F020010091816941F004018161EE
:10137000816901F004010091816941F008018161F6
:10138000806900F00800009008BD000000100240D5
:101390000D4810B50B4901600C49416000214FF424
:1013A00080428160C0E9031241618161C1610162D3
:1013B000FFF744F8002803D0BDE81040FEF7D8BE80
:1013C00010BD00000054004014040020801A0600E4
:1013D0000C4810B50A4901604FF4E1314160002129
:1013E00081600C22C160C0E904128161C161FFF714
:1013F000DFFD002803D0BDE81040FEF7B9BE10BDE8
:101400000038014068040020FEE7704770B50024F2
:1014100004F1B000C0B200F051F8002000F04EF826
:10142000102000F04BF80025002000F05DF86D1C46
:10143000EDB2802DF8D3641CE4B2082CE8D370BD63
:1014400010B5AE2000F03AF8A42000F037F8A6203E
:1014500000F034F8202000F031F8022000F02EF8DF
:10146000812000F02BF87F2000F028F8D32000F036
:1014700025F8002000F022F82E2000F01FF8A82008
:1014800000F01CF83F2000F019F8A12000F016F839
:10149000C82000F013F8D52000F010F8802000F0EC
:1014A0000DF88D2000F00AF8142000F007F8AF20A6
:1014B00000F004F8BDE81040FFF7A8BF01B584B004
:1014C0004FF47A72012104A88DE8070004480B4606
:1014D000002201780348FFF775F805B000BD000051
:1014E000000000201404002001B584B04FF47A728B
:1014F000012104A88DE8070004480B46402201782A
:101500000348FFF75FF805B000BD000000000020B1
:10151000140400207047000070B52020FFF7CEFFB4
:101520000020FFF7CBFF2120FFF7C8FF0020FFF7C7
:10153000C5FF7F20FFF7C2FF2220FFF7BFFF00207B
:10154000FFF7BCFF0720FFF7B9FF064D00244FF45B
:101550008066285DFFF7C8FF641CA4B2B442F8D3CC
:1015600070BD0000140000207047FFF7F1B830B5DF
:101570008FB028216846FEF7DCFD14210AA8FEF78B
:10158000D8FD01210804CDE90010002402940225B1
:101590000491CDE907504FF4E01009906846FFF739
:1015A0005BFA0F20CDE90A056802CDE90C40022163
:1015B0000AA80E94FFF764F90FB030BD704710B55C
:1015C000406A0021C185C184FFF7EBFB10BD0168B3
:1015D000CA6822F49072CA6001684A6922F0010266
:1015E0004A61016B012904D10168CA6822F0100226
:1015F000CA60202180F83E1000210163704708B5C1
:1016000090F83E10222901D0022008BD82684FF4D4
:1016100080539A4201D1016921B1816A9A421BD05B
:101620004AB10AE00268816A5268C2F308020A807D
:10163000816A891C08E0026972B10268526802F08E
:101640007F020A70816A491C8162C18D491E0904AA
:10165000090CC18503D019E002685268F1E70168FE
:10166000CA6822F02002CA600168CA6822F4807247
:10167000CA6001684A6922F001024A61202180F8AB
:101680003E10016B012903D0FFF71AFD002008BDB1
:10169000002101630168CA6822F01002CA60016873
:1016A0000A68D20602D50A6849680091818DFFF761
:1016B00077FBEBE770B5044600680169E26821F446
:1016C0004051114301612169A068084361690843E1
:1016D0002168CA6841F20C639A430243CA602068D9
:1016E0004169A26921F44071114341611E4920689A
:1016F000884202D1FFF76AF901E0FFF757F900EBE2
:10170000C00101EB0012606864218000B2FBF0F3BD
:10171000B3FBF1F36FF018067343B2FBF0F5B2FBC5
:10172000F0F605EB8305322303EB0515B5FBF1F568
:10173000B6FBF1F605F0F00505EB0615B2FBF0F689
:10174000B2FBF0F0B0FBF1F06FF01802504306EB83
:10175000800003EB0010B0FBF1F0216800F00F00F7
:101760002844886070BD0000003801408162828595
:10177000C28500210164222280F83E2080F83C10BE
:101780000168CA6842F48072CA6001684A6942F01E
:1017900001024A610068C16841F02001C160002077
:1017A000704700000148FFF7FDBA00006804002000
:1017B000FEE70907090E002804DB00F1E02080F8AD
:1017C0000014704700F00F0000F1E02080F8141DB5
:1017D000704702E008C8121F08C1002AFAD17047FA
:1017E0007047002001E001C1121F002AFBD17047A1
:1017F000FEF7B6FFFFF7BBFEFFF7ACFDFFF7C8FD36
:10180000FFF7E6FDFFF71CFE4FF480620249034834
:10181000FFF740FCFEE700001400002068040020F1
:101820000000000000000000010203040607080990
:101830000000000001020304581800080000002006
:1018400014000000D21700086C18000814000020D3
:101850009C080000E217000878000000010000006A
:0C18600010000000000000000024F40054
:04000005080000ED02
:00000001FF
